{
  "contractName": "Patient",
  "abi": [
    {
      "inputs": [],
      "stateMutability": "nonpayable",
      "type": "constructor"
    },
    {
      "inputs": [],
      "name": "hospital",
      "outputs": [
        {
          "internalType": "address",
          "name": "",
          "type": "address"
        }
      ],
      "stateMutability": "view",
      "type": "function"
    },
    {
      "inputs": [],
      "name": "owner",
      "outputs": [
        {
          "internalType": "address",
          "name": "",
          "type": "address"
        }
      ],
      "stateMutability": "view",
      "type": "function"
    },
    {
      "inputs": [
        {
          "internalType": "address",
          "name": "_owner",
          "type": "address"
        }
      ],
      "name": "initialize",
      "outputs": [
        {
          "internalType": "bool",
          "name": "",
          "type": "bool"
        }
      ],
      "stateMutability": "nonpayable",
      "type": "function"
    },
    {
      "inputs": [
        {
          "internalType": "uint112",
          "name": "_dateStart",
          "type": "uint112"
        },
        {
          "internalType": "uint112",
          "name": "_dateEnd",
          "type": "uint112"
        },
        {
          "internalType": "string",
          "name": "_department",
          "type": "string"
        },
        {
          "internalType": "string[]",
          "name": "_treatmentTopics",
          "type": "string[]"
        },
        {
          "internalType": "string[]",
          "name": "_treatmentDescription",
          "type": "string[]"
        },
        {
          "internalType": "string[]",
          "name": "_resultTopics",
          "type": "string[]"
        },
        {
          "internalType": "string[]",
          "name": "_resultDescription",
          "type": "string[]"
        },
        {
          "internalType": "string[]",
          "name": "_doctor",
          "type": "string[]"
        },
        {
          "internalType": "string[]",
          "name": "_doctorResponsibility",
          "type": "string[]"
        }
      ],
      "name": "addRecord",
      "outputs": [
        {
          "internalType": "bool",
          "name": "",
          "type": "bool"
        }
      ],
      "stateMutability": "nonpayable",
      "type": "function"
    },
    {
      "inputs": [],
      "name": "getRecords",
      "outputs": [
        {
          "internalType": "uint256",
          "name": "_recordCount",
          "type": "uint256"
        }
      ],
      "stateMutability": "view",
      "type": "function"
    },
    {
      "inputs": [
        {
          "internalType": "uint256",
          "name": "_index",
          "type": "uint256"
        }
      ],
      "name": "getExactRecord",
      "outputs": [
        {
          "internalType": "uint112",
          "name": "_dateStart",
          "type": "uint112"
        },
        {
          "internalType": "uint112",
          "name": "_dateEnd",
          "type": "uint112"
        },
        {
          "internalType": "string",
          "name": "_department",
          "type": "string"
        },
        {
          "internalType": "string[]",
          "name": "_treatmentTopics",
          "type": "string[]"
        },
        {
          "internalType": "string[]",
          "name": "_treatmentDescription",
          "type": "string[]"
        },
        {
          "internalType": "string[]",
          "name": "_resultTopics",
          "type": "string[]"
        },
        {
          "internalType": "string[]",
          "name": "_resultDescription",
          "type": "string[]"
        },
        {
          "internalType": "string[]",
          "name": "_doctor",
          "type": "string[]"
        },
        {
          "internalType": "string[]",
          "name": "_doctorResponsibility",
          "type": "string[]"
        }
      ],
      "stateMutability": "view",
      "type": "function"
    },
    {
      "inputs": [
        {
          "internalType": "address",
          "name": "target",
          "type": "address"
        },
        {
          "internalType": "uint256",
          "name": "recordIndex",
          "type": "uint256"
        }
      ],
      "name": "approve",
      "outputs": [
        {
          "internalType": "bool",
          "name": "",
          "type": "bool"
        }
      ],
      "stateMutability": "nonpayable",
      "type": "function"
    },
    {
      "inputs": [
        {
          "internalType": "address",
          "name": "target",
          "type": "address"
        },
        {
          "internalType": "uint256",
          "name": "recordIndex",
          "type": "uint256"
        }
      ],
      "name": "unapprove",
      "outputs": [
        {
          "internalType": "bool",
          "name": "",
          "type": "bool"
        }
      ],
      "stateMutability": "nonpayable",
      "type": "function"
    },
    {
      "inputs": [
        {
          "internalType": "address",
          "name": "target",
          "type": "address"
        },
        {
          "internalType": "uint256",
          "name": "recordIndex",
          "type": "uint256"
        }
      ],
      "name": "allowance",
      "outputs": [
        {
          "internalType": "bool",
          "name": "result",
          "type": "bool"
        }
      ],
      "stateMutability": "view",
      "type": "function"
    }
  ],
  "bytecode": "0x6080604052600060045534801561001557600080fd5b50336000806101000a81548173ffffffffffffffffffffffffffffffffffffffff021916908373ffffffffffffffffffffffffffffffffffffffff160217905550611acd806100656000396000f3fe608060405234801561001057600080fd5b50600436106100935760003560e01c80639c059584116100665780639c05958414610134578063aa2fedde14610164578063c4d66de814610182578063ddc6a171146101b2578063e9b9e46b146101e257610093565b8063095ea7b3146100985780636f8e2759146100c85780638da5cb5b146100f85780638eff3c2914610116575b600080fd5b6100b260048036038101906100ad9190611296565b61021a565b6040516100bf9190611661565b60405180910390f35b6100e260048036038101906100dd9190611296565b61031f565b6040516100ef9190611661565b60405180910390f35b610100610424565b60405161010d9190611646565b60405180910390f35b61011e61044a565b60405161012b919061177a565b60405180910390f35b61014e600480360381019061014991906112d2565b610454565b60405161015b9190611661565b60405180910390f35b61016c610721565b6040516101799190611646565b60405180910390f35b61019c6004803603810190610197919061126d565b610745565b6040516101a99190611661565b60405180910390f35b6101cc60048036038101906101c79190611296565b610820565b6040516101d99190611661565b60405180910390f35b6101fc60048036038101906101f79190611440565b610888565b604051610211999897969594939291906116bc565b60405180910390f35b6000600160009054906101000a900473ffffffffffffffffffffffffffffffffffffffff1673ffffffffffffffffffffffffffffffffffffffff163373ffffffffffffffffffffffffffffffffffffffff16146102ac576040517f08c379a00000000000000000000000000000000000000000000000000000000081526004016102a39061169c565b60405180910390fd5b6001600260008573ffffffffffffffffffffffffffffffffffffffff1673ffffffffffffffffffffffffffffffffffffffff168152602001908152602001600020600084815260200190815260200160002060006101000a81548160ff0219169083151502179055506001905092915050565b6000600160009054906101000a900473ffffffffffffffffffffffffffffffffffffffff1673ffffffffffffffffffffffffffffffffffffffff163373ffffffffffffffffffffffffffffffffffffffff16146103b1576040517f08c379a00000000000000000000000000000000000000000000000000000000081526004016103a89061169c565b60405180910390fd5b6000600260008573ffffffffffffffffffffffffffffffffffffffff1673ffffffffffffffffffffffffffffffffffffffff168152602001908152602001600020600084815260200190815260200160002060006101000a81548160ff0219169083151502179055506001905092915050565b600160009054906101000a900473ffffffffffffffffffffffffffffffffffffffff1681565b6000600454905090565b60008060009054906101000a900473ffffffffffffffffffffffffffffffffffffffff1673ffffffffffffffffffffffffffffffffffffffff163373ffffffffffffffffffffffffffffffffffffffff16146104e5576040517f08c379a00000000000000000000000000000000000000000000000000000000081526004016104dc9061167c565b60405180910390fd5b6104ed610f6c565b8a81600001906dffffffffffffffffffffffffffff1690816dffffffffffffffffffffffffffff16815250508981602001906dffffffffffffffffffffffffffff1690816dffffffffffffffffffffffffffff1681525050888160400181905250878160600181905250868160800181905250858160a00181905250848160c00181905250838160e0018190525082816101000181905250600381908060018154018082558091505060019003906000526020600020906008020160009091909190915060008201518160000160006101000a8154816dffffffffffffffffffffffffffff02191690836dffffffffffffffffffffffffffff160217905550602082015181600001600e6101000a8154816dffffffffffffffffffffffffffff02191690836dffffffffffffffffffffffffffff1602179055506040820151816001019080519060200190610643929190610fd8565b50606082015181600201908051906020019061066092919061105e565b50608082015181600301908051906020019061067d92919061105e565b5060a082015181600401908051906020019061069a92919061105e565b5060c08201518160050190805190602001906106b792919061105e565b5060e08201518160060190805190602001906106d492919061105e565b506101008201518160070190805190602001906106f292919061105e565b5050506001600460008282546107089190611888565b9250508190555060019150509998505050505050505050565b60008054906101000a900473ffffffffffffffffffffffffffffffffffffffff1681565b60008060009054906101000a900473ffffffffffffffffffffffffffffffffffffffff1673ffffffffffffffffffffffffffffffffffffffff163373ffffffffffffffffffffffffffffffffffffffff16146107d6576040517f08c379a00000000000000000000000000000000000000000000000000000000081526004016107cd9061169c565b60405180910390fd5b81600160006101000a81548173ffffffffffffffffffffffffffffffffffffffff021916908373ffffffffffffffffffffffffffffffffffffffff16021790555060019050919050565b6000600260008473ffffffffffffffffffffffffffffffffffffffff1673ffffffffffffffffffffffffffffffffffffffff168152602001908152602001600020600083815260200190815260200160002060009054906101000a900460ff16905092915050565b6000806060806060806060806060600060038b815481106108d2577f4e487b7100000000000000000000000000000000000000000000000000000000600052603260045260246000fd5b9060005260206000209060080201604051806101200160405290816000820160009054906101000a90046dffffffffffffffffffffffffffff166dffffffffffffffffffffffffffff166dffffffffffffffffffffffffffff16815260200160008201600e9054906101000a90046dffffffffffffffffffffffffffff166dffffffffffffffffffffffffffff166dffffffffffffffffffffffffffff16815260200160018201805461098490611982565b80601f01602080910402602001604051908101604052809291908181526020018280546109b090611982565b80156109fd5780601f106109d2576101008083540402835291602001916109fd565b820191906000526020600020905b8154815290600101906020018083116109e057829003601f168201915b5050505050815260200160028201805480602002602001604051908101604052809291908181526020016000905b82821015610ad7578382906000526020600020018054610a4a90611982565b80601f0160208091040260200160405190810160405280929190818152602001828054610a7690611982565b8015610ac35780601f10610a9857610100808354040283529160200191610ac3565b820191906000526020600020905b815481529060010190602001808311610aa657829003601f168201915b505050505081526020019060010190610a2b565b50505050815260200160038201805480602002602001604051908101604052809291908181526020016000905b82821015610bb0578382906000526020600020018054610b2390611982565b80601f0160208091040260200160405190810160405280929190818152602001828054610b4f90611982565b8015610b9c5780601f10610b7157610100808354040283529160200191610b9c565b820191906000526020600020905b815481529060010190602001808311610b7f57829003601f168201915b505050505081526020019060010190610b04565b50505050815260200160048201805480602002602001604051908101604052809291908181526020016000905b82821015610c89578382906000526020600020018054610bfc90611982565b80601f0160208091040260200160405190810160405280929190818152602001828054610c2890611982565b8015610c755780601f10610c4a57610100808354040283529160200191610c75565b820191906000526020600020905b815481529060010190602001808311610c5857829003601f168201915b505050505081526020019060010190610bdd565b50505050815260200160058201805480602002602001604051908101604052809291908181526020016000905b82821015610d62578382906000526020600020018054610cd590611982565b80601f0160208091040260200160405190810160405280929190818152602001828054610d0190611982565b8015610d4e5780601f10610d2357610100808354040283529160200191610d4e565b820191906000526020600020905b815481529060010190602001808311610d3157829003601f168201915b505050505081526020019060010190610cb6565b50505050815260200160068201805480602002602001604051908101604052809291908181526020016000905b82821015610e3b578382906000526020600020018054610dae90611982565b80601f0160208091040260200160405190810160405280929190818152602001828054610dda90611982565b8015610e275780601f10610dfc57610100808354040283529160200191610e27565b820191906000526020600020905b815481529060010190602001808311610e0a57829003601f168201915b505050505081526020019060010190610d8f565b50505050815260200160078201805480602002602001604051908101604052809291908181526020016000905b82821015610f14578382906000526020600020018054610e8790611982565b80601f0160208091040260200160405190810160405280929190818152602001828054610eb390611982565b8015610f005780601f10610ed557610100808354040283529160200191610f00565b820191906000526020600020905b815481529060010190602001808311610ee357829003601f168201915b505050505081526020019060010190610e68565b5050505081525050905080600001519950806020015198508060400151975080606001519650806080015195508060a0015194508060c0015193508060e0015192508061010001519150509193959799909294969850565b60405180610120016040528060006dffffffffffffffffffffffffffff16815260200160006dffffffffffffffffffffffffffff168152602001606081526020016060815260200160608152602001606081526020016060815260200160608152602001606081525090565b828054610fe490611982565b90600052602060002090601f016020900481019282611006576000855561104d565b82601f1061101f57805160ff191683800117855561104d565b8280016001018555821561104d579182015b8281111561104c578251825591602001919060010190611031565b5b50905061105a91906110be565b5090565b8280548282559060005260206000209081019282156110ad579160200282015b828111156110ac57825182908051906020019061109c929190610fd8565b509160200191906001019061107e565b5b5090506110ba91906110db565b5090565b5b808211156110d75760008160009055506001016110bf565b5090565b5b808211156110fb57600081816110f291906110ff565b506001016110dc565b5090565b50805461110b90611982565b6000825580601f1061111d575061113c565b601f01602090049060005260206000209081019061113b91906110be565b5b50565b600061115261114d846117c6565b611795565b9050808382526020820190508260005b8581101561119257813585016111788882611219565b845260208401935060208301925050600181019050611162565b5050509392505050565b60006111af6111aa846117f2565b611795565b9050828152602081018484840111156111c757600080fd5b6111d2848285611940565b509392505050565b6000813590506111e981611a52565b92915050565b600082601f83011261120057600080fd5b813561121084826020860161113f565b91505092915050565b600082601f83011261122a57600080fd5b813561123a84826020860161119c565b91505092915050565b60008135905061125281611a69565b92915050565b60008135905061126781611a80565b92915050565b60006020828403121561127f57600080fd5b600061128d848285016111da565b91505092915050565b600080604083850312156112a957600080fd5b60006112b7858286016111da565b92505060206112c885828601611258565b9150509250929050565b60008060008060008060008060006101208a8c0312156112f157600080fd5b60006112ff8c828d01611243565b99505060206113108c828d01611243565b98505060408a013567ffffffffffffffff81111561132d57600080fd5b6113398c828d01611219565b97505060608a013567ffffffffffffffff81111561135657600080fd5b6113628c828d016111ef565b96505060808a013567ffffffffffffffff81111561137f57600080fd5b61138b8c828d016111ef565b95505060a08a013567ffffffffffffffff8111156113a857600080fd5b6113b48c828d016111ef565b94505060c08a013567ffffffffffffffff8111156113d157600080fd5b6113dd8c828d016111ef565b93505060e08a013567ffffffffffffffff8111156113fa57600080fd5b6114068c828d016111ef565b9250506101008a013567ffffffffffffffff81111561142457600080fd5b6114308c828d016111ef565b9150509295985092959850929598565b60006020828403121561145257600080fd5b600061146084828501611258565b91505092915050565b60006114758383611510565b905092915050565b611486816118de565b82525050565b600061149782611832565b6114a18185611855565b9350836020820285016114b385611822565b8060005b858110156114ef57848403895281516114d08582611469565b94506114db83611848565b925060208a019950506001810190506114b7565b50829750879550505050505092915050565b61150a816118f0565b82525050565b600061151b8261183d565b6115258185611866565b935061153581856020860161194f565b61153e81611a41565b840191505092915050565b60006115548261183d565b61155e8185611877565b935061156e81856020860161194f565b61157781611a41565b840191505092915050565b600061158f602383611877565b91507f4d656470726f6a656374733a204144445f5245434f5244206e6f7420616c6c6f60008301527f77656400000000000000000000000000000000000000000000000000000000006020830152604082019050919050565b60006115f5601e83611877565b91507f4d656470726f6a656374733a205045524d495353494f4e5f44454e49454400006000830152602082019050919050565b611631816118fc565b82525050565b61164081611936565b82525050565b600060208201905061165b600083018461147d565b92915050565b60006020820190506116766000830184611501565b92915050565b6000602082019050818103600083015261169581611582565b9050919050565b600060208201905081810360008301526116b5816115e8565b9050919050565b6000610120820190506116d2600083018c611628565b6116df602083018b611628565b81810360408301526116f1818a611549565b90508181036060830152611705818961148c565b90508181036080830152611719818861148c565b905081810360a083015261172d818761148c565b905081810360c0830152611741818661148c565b905081810360e0830152611755818561148c565b905081810361010083015261176a818461148c565b90509a9950505050505050505050565b600060208201905061178f6000830184611637565b92915050565b6000604051905081810181811067ffffffffffffffff821117156117bc576117bb611a12565b5b8060405250919050565b600067ffffffffffffffff8211156117e1576117e0611a12565b5b602082029050602081019050919050565b600067ffffffffffffffff82111561180d5761180c611a12565b5b601f19601f8301169050602081019050919050565b6000819050602082019050919050565b600081519050919050565b600081519050919050565b6000602082019050919050565b600082825260208201905092915050565b600082825260208201905092915050565b600082825260208201905092915050565b600061189382611936565b915061189e83611936565b9250827fffffffffffffffffffffffffffffffffffffffffffffffffffffffffffffffff038211156118d3576118d26119b4565b5b828201905092915050565b60006118e982611916565b9050919050565b60008115159050919050565b60006dffffffffffffffffffffffffffff82169050919050565b600073ffffffffffffffffffffffffffffffffffffffff82169050919050565b6000819050919050565b82818337600083830152505050565b60005b8381101561196d578082015181840152602081019050611952565b8381111561197c576000848401525b50505050565b6000600282049050600182168061199a57607f821691505b602082108114156119ae576119ad6119e3565b5b50919050565b7f4e487b7100000000000000000000000000000000000000000000000000000000600052601160045260246000fd5b7f4e487b7100000000000000000000000000000000000000000000000000000000600052602260045260246000fd5b7f4e487b7100000000000000000000000000000000000000000000000000000000600052604160045260246000fd5b6000601f19601f8301169050919050565b611a5b816118de565b8114611a6657600080fd5b50565b611a72816118fc565b8114611a7d57600080fd5b50565b611a8981611936565b8114611a9457600080fd5b5056fea2646970667358221220e7981fc9c473dc4b21369544ae72529a481310f3f8ac23569bc0e18993836c9d64736f6c63430008000033",
  "immutableReferences": {},
  "source": "// SPDX-License-Identifier: GPL-3.0\n\npragma solidity ^0.8.0;\n\ncontract Patient {\n\n    address public hospital;\n    address public owner;\n\n    struct Record {\n        uint112 dateStart;\n        uint112 dateEnd;\n        string department;\n        string[] treatmentTopics;\n        string[] treatmentDescription;\n        string[] resultTopics;\n        string[] resultDescription;\n        string[] doctor;\n        string[] doctorResponsibility;\n    }\n\n    // allowance\n    mapping(address => mapping(uint => bool)) allowances;\n\n    // records\n    Record[] records;\n    uint recordCount = 0;\n    \n    modifier onlyOwner {\n        require(msg.sender == owner, \"Medprojects: PERMISSION_DENIED\");\n        _;\n    }\n    modifier onlyHospital {\n        require(msg.sender == hospital, \"Medprojects: PERMISSION_DENIED\");\n        _;\n    }\n\n    constructor () {\n        hospital = msg.sender;\n    }\n\n    function initialize(address _owner) external onlyHospital returns (bool) {\n        owner = _owner;\n        return true;\n    }\n\n    function addRecord(\n        uint112 _dateStart,\n        uint112 _dateEnd,\n        string memory _department,\n        string[] memory _treatmentTopics,\n        string[] memory _treatmentDescription,\n        string[] memory _resultTopics,\n        string[] memory _resultDescription,\n        string[] memory _doctor,\n        string[] memory _doctorResponsibility\n    ) public returns (bool) {\n        // only hospital can add records\n        require(msg.sender == hospital, \"Medprojects: ADD_RECORD not allowed\");\n        Record memory newRecord;\n        newRecord.dateStart = _dateStart;\n        newRecord.dateEnd = _dateEnd;\n        newRecord.department = _department;\n        newRecord.treatmentTopics = _treatmentTopics;\n        newRecord.treatmentDescription = _treatmentDescription;\n        newRecord.resultTopics = _resultTopics;\n        newRecord.resultDescription = _resultDescription;\n        newRecord.doctor = _doctor;\n        newRecord.doctorResponsibility = _doctorResponsibility;\n        records.push(newRecord);\n        recordCount += 1;\n        return true;\n    }\n    function getRecords() public view returns (uint _recordCount) {\n        // Get amount of patient's records \n        _recordCount = recordCount;\n    }\n    function getExactRecord(uint _index) public view returns (\n        uint112 _dateStart,\n        uint112 _dateEnd,\n        string memory _department,\n        string[] memory _treatmentTopics,\n        string[] memory _treatmentDescription,\n        string[] memory _resultTopics,\n        string[] memory _resultDescription,\n        string[] memory _doctor,\n        string[] memory _doctorResponsibility\n    ) {\n        // Get exact record by index\n        Record memory target = records[_index];\n        _dateStart = target.dateStart;\n        _dateEnd = target.dateEnd;\n        _department = target.department;\n        _treatmentTopics = target.treatmentTopics;\n        _treatmentDescription = target.treatmentDescription;\n        _resultTopics = target.resultTopics;\n        _resultDescription = target.resultDescription;\n        _doctor = target.doctor;\n        _doctorResponsibility = target.doctorResponsibility;\n    }\n    function approve(address target, uint recordIndex) public onlyOwner returns (bool) {\n        allowances[target][recordIndex] = true;\n        return true;\n    }\n    function unapprove(address target, uint recordIndex) public onlyOwner returns (bool) {\n        allowances[target][recordIndex] = false;\n        return true;\n    }\n    function allowance(address target, uint recordIndex) public view returns (bool result) {\n        result = allowances[target][recordIndex];\n    }\n}",
  "sourcePath": "/mnt/d/Nutchanon/code/medprojects/contracts/Patient.sol",
  "compiler": {
    "name": "solc",
    "version": "0.8.0+commit.c7dfd78e.Emscripten.clang"
  },
  "schemaVersion": "3.4.3",
  "updatedAt": "2021-10-13T17:03:43.525Z",
  "devdoc": {
    "kind": "dev",
    "methods": {},
    "version": 1
  },
  "userdoc": {
    "kind": "user",
    "methods": {},
    "version": 1
  }
}